{
  "abi": [
    {
      "inputs": [],
      "name": "FailedTransfer",
      "type": "error"
    },
    {
      "inputs": [],
      "name": "FailedTransferFrom",
      "type": "error"
    },
    {
      "inputs": [
        {
          "internalType": "uint256",
          "name": "collateral",
          "type": "uint256"
        },
        {
          "internalType": "uint256",
          "name": "",
          "type": "uint256"
        },
        {
          "internalType": "uint256",
          "name": "",
          "type": "uint256"
        },
        {
          "internalType": "uint256",
          "name": "",
          "type": "uint256"
        },
        {
          "internalType": "bytes",
          "name": "data",
          "type": "bytes"
        }
      ],
      "name": "mintCallback",
      "outputs": [],
      "stateMutability": "nonpayable",
      "type": "function"
    },
    {
      "inputs": [
        {
          "internalType": "uint256",
          "name": "",
          "type": "uint256"
        },
        {
          "internalType": "bytes",
          "name": "data",
          "type": "bytes"
        }
      ],
      "name": "pairMintCallback",
      "outputs": [],
      "stateMutability": "nonpayable",
      "type": "function"
    },
    {
      "inputs": [
        {
          "internalType": "uint256",
          "name": "",
          "type": "uint256"
        },
        {
          "internalType": "uint256",
          "name": "",
          "type": "uint256"
        },
        {
          "internalType": "bytes",
          "name": "data",
          "type": "bytes"
        }
      ],
      "name": "swapCallback",
      "outputs": [],
      "stateMutability": "nonpayable",
      "type": "function"
    }
  ],
  "bytecode": {
    "object": "0x608060405234801561001057600080fd5b506106fe806100206000396000f3fe608060405234801561001057600080fd5b50600436106100415760003560e01c80632dde7c2414610046578063923b8a2a1461005b578063ef4ae61c1461006e575b600080fd5b610059610054366004610470565b610081565b005b6100596100693660046104da565b6100f7565b61005961007c36600461052d565b6101c8565b600061008f828401846105a2565b90503073ffffffffffffffffffffffffffffffffffffffff16816020015173ffffffffffffffffffffffffffffffffffffffff16036100da5780516100d5903389610298565b6100ee565b6100ee81600001518260200151338a61032f565b50505050505050565b6000610105828401846106ce565b90503073ffffffffffffffffffffffffffffffffffffffff16816080015173ffffffffffffffffffffffffffffffffffffffff160361017d5760408101511561015b5761015b8160000151338360400151610298565b606081015115610178576101788160200151338360600151610298565b6101c1565b60408101511561019f5761019f8160000151826080015133846040015161032f565b6060810151156101c1576101c18160200151826080015133846060015161032f565b5050505050565b60006101d6828401846106ce565b90503073ffffffffffffffffffffffffffffffffffffffff16816080015173ffffffffffffffffffffffffffffffffffffffff160361024e5760408101511561022c5761022c8160000151338360400151610298565b606081015115610249576102498160200151338360600151610298565b610292565b604081015115610270576102708160000151826080015133846040015161032f565b606081015115610292576102928160200151826080015133846060015161032f565b50505050565b60006040517fa9059cbb00000000000000000000000000000000000000000000000000000000815273ffffffffffffffffffffffffffffffffffffffff841660048201528260248201526000806044836000895af19150506102f9816103e2565b610292576040517fbfa871c500000000000000000000000000000000000000000000000000000000815260040160405180910390fd5b60006040517f23b872dd00000000000000000000000000000000000000000000000000000000815273ffffffffffffffffffffffffffffffffffffffff8516600482015273ffffffffffffffffffffffffffffffffffffffff8416602482015282604482015260008060648360008a5af19150506103ac816103e2565b6101c1576040517fa83c475400000000000000000000000000000000000000000000000000000000815260040160405180910390fd5b6000816103f3573d6000803e3d6000fd5b3d6020811461040b57801561041c5760009150610421565b3d6000803e60005115159150610421565b600191505b50919050565b60008083601f84011261043957600080fd5b50813567ffffffffffffffff81111561045157600080fd5b60208301915083602082850101111561046957600080fd5b9250929050565b60008060008060008060a0878903121561048957600080fd5b86359550602087013594506040870135935060608701359250608087013567ffffffffffffffff8111156104bc57600080fd5b6104c889828a01610427565b979a9699509497509295939492505050565b600080600080606085870312156104f057600080fd5b8435935060208501359250604085013567ffffffffffffffff81111561051557600080fd5b61052187828801610427565b95989497509550505050565b60008060006040848603121561054257600080fd5b83359250602084013567ffffffffffffffff81111561056057600080fd5b61056c86828701610427565b9497909650939450505050565b803573ffffffffffffffffffffffffffffffffffffffff8116811461059d57600080fd5b919050565b6000604082840312156105b457600080fd5b6040516040810181811067ffffffffffffffff821117156105fe577f4e487b7100000000000000000000000000000000000000000000000000000000600052604160045260246000fd5b60405261060a83610579565b815261061860208401610579565b60208201529392505050565b600060a0828403121561063657600080fd5b60405160a0810181811067ffffffffffffffff82111715610680577f4e487b7100000000000000000000000000000000000000000000000000000000600052604160045260246000fd5b60405290508061068f83610579565b815261069d60208401610579565b602082015260408301356040820152606083013560608201526106c260808401610579565b60808201525092915050565b600060a082840312156106e057600080fd5b6106ea8383610624565b939250505056fea164736f6c6343000811000a",
    "linkReferences": {}
  },
  "methodIdentifiers": {
    "mintCallback(uint256,uint256,uint256,uint256,bytes)": "2dde7c24",
    "pairMintCallback(uint256,bytes)": "ef4ae61c",
    "swapCallback(uint256,uint256,bytes)": "923b8a2a"
  },
  "id": 74
}