{
  "abi": [
    {
      "inputs": [],
      "stateMutability": "nonpayable",
      "type": "constructor"
    },
    {
      "anonymous": false,
      "inputs": [
        {
          "indexed": true,
          "internalType": "address",
          "name": "owner",
          "type": "address"
        },
        {
          "indexed": true,
          "internalType": "address",
          "name": "spender",
          "type": "address"
        },
        {
          "indexed": false,
          "internalType": "uint256",
          "name": "amount",
          "type": "uint256"
        }
      ],
      "name": "Approval",
      "type": "event"
    },
    {
      "anonymous": false,
      "inputs": [
        {
          "indexed": true,
          "internalType": "address",
          "name": "from",
          "type": "address"
        },
        {
          "indexed": true,
          "internalType": "address",
          "name": "to",
          "type": "address"
        },
        {
          "indexed": false,
          "internalType": "uint256",
          "name": "amount",
          "type": "uint256"
        }
      ],
      "name": "Transfer",
      "type": "event"
    },
    {
      "inputs": [],
      "name": "DOMAIN_SEPARATOR",
      "outputs": [
        {
          "internalType": "bytes32",
          "name": "",
          "type": "bytes32"
        }
      ],
      "stateMutability": "view",
      "type": "function"
    },
    {
      "inputs": [],
      "name": "PERMIT_TYPEHASH",
      "outputs": [
        {
          "internalType": "bytes32",
          "name": "",
          "type": "bytes32"
        }
      ],
      "stateMutability": "view",
      "type": "function"
    },
    {
      "inputs": [
        {
          "internalType": "address",
          "name": "",
          "type": "address"
        },
        {
          "internalType": "address",
          "name": "",
          "type": "address"
        }
      ],
      "name": "allowance",
      "outputs": [
        {
          "internalType": "uint256",
          "name": "",
          "type": "uint256"
        }
      ],
      "stateMutability": "view",
      "type": "function"
    },
    {
      "inputs": [
        {
          "internalType": "address",
          "name": "spender",
          "type": "address"
        },
        {
          "internalType": "uint256",
          "name": "amount",
          "type": "uint256"
        }
      ],
      "name": "approve",
      "outputs": [
        {
          "internalType": "bool",
          "name": "",
          "type": "bool"
        }
      ],
      "stateMutability": "nonpayable",
      "type": "function"
    },
    {
      "inputs": [
        {
          "internalType": "address",
          "name": "",
          "type": "address"
        }
      ],
      "name": "balanceOf",
      "outputs": [
        {
          "internalType": "uint256",
          "name": "",
          "type": "uint256"
        }
      ],
      "stateMutability": "view",
      "type": "function"
    },
    {
      "inputs": [
        {
          "internalType": "address",
          "name": "from",
          "type": "address"
        },
        {
          "internalType": "uint256",
          "name": "value",
          "type": "uint256"
        }
      ],
      "name": "burn",
      "outputs": [],
      "stateMutability": "nonpayable",
      "type": "function"
    },
    {
      "inputs": [],
      "name": "decimals",
      "outputs": [
        {
          "internalType": "uint8",
          "name": "",
          "type": "uint8"
        }
      ],
      "stateMutability": "view",
      "type": "function"
    },
    {
      "inputs": [
        {
          "internalType": "address",
          "name": "to",
          "type": "address"
        },
        {
          "internalType": "uint256",
          "name": "value",
          "type": "uint256"
        }
      ],
      "name": "mint",
      "outputs": [],
      "stateMutability": "nonpayable",
      "type": "function"
    },
    {
      "inputs": [],
      "name": "name",
      "outputs": [
        {
          "internalType": "string",
          "name": "",
          "type": "string"
        }
      ],
      "stateMutability": "view",
      "type": "function"
    },
    {
      "inputs": [
        {
          "internalType": "address",
          "name": "",
          "type": "address"
        }
      ],
      "name": "nonces",
      "outputs": [
        {
          "internalType": "uint256",
          "name": "",
          "type": "uint256"
        }
      ],
      "stateMutability": "view",
      "type": "function"
    },
    {
      "inputs": [
        {
          "internalType": "address",
          "name": "owner",
          "type": "address"
        },
        {
          "internalType": "address",
          "name": "spender",
          "type": "address"
        },
        {
          "internalType": "uint256",
          "name": "value",
          "type": "uint256"
        },
        {
          "internalType": "uint256",
          "name": "deadline",
          "type": "uint256"
        },
        {
          "internalType": "uint8",
          "name": "v",
          "type": "uint8"
        },
        {
          "internalType": "bytes32",
          "name": "r",
          "type": "bytes32"
        },
        {
          "internalType": "bytes32",
          "name": "s",
          "type": "bytes32"
        }
      ],
      "name": "permit",
      "outputs": [],
      "stateMutability": "nonpayable",
      "type": "function"
    },
    {
      "inputs": [],
      "name": "symbol",
      "outputs": [
        {
          "internalType": "string",
          "name": "",
          "type": "string"
        }
      ],
      "stateMutability": "view",
      "type": "function"
    },
    {
      "inputs": [],
      "name": "totalSupply",
      "outputs": [
        {
          "internalType": "uint256",
          "name": "",
          "type": "uint256"
        }
      ],
      "stateMutability": "view",
      "type": "function"
    },
    {
      "inputs": [
        {
          "internalType": "address",
          "name": "to",
          "type": "address"
        },
        {
          "internalType": "uint256",
          "name": "amount",
          "type": "uint256"
        }
      ],
      "name": "transfer",
      "outputs": [
        {
          "internalType": "bool",
          "name": "",
          "type": "bool"
        }
      ],
      "stateMutability": "nonpayable",
      "type": "function"
    },
    {
      "inputs": [
        {
          "internalType": "address",
          "name": "from",
          "type": "address"
        },
        {
          "internalType": "address",
          "name": "to",
          "type": "address"
        },
        {
          "internalType": "uint256",
          "name": "amount",
          "type": "uint256"
        }
      ],
      "name": "transferFrom",
      "outputs": [
        {
          "internalType": "bool",
          "name": "",
          "type": "bool"
        }
      ],
      "stateMutability": "nonpayable",
      "type": "function"
    }
  ],
  "bytecode": {
    "object": "0x60c060405234801561001057600080fd5b50466080526100e8604080518082018252601d81527f4e756d6f656e205265706c69636174696e67204465726976617469766500000060209182015281517f8b73c3c69bb8fe3d512ecc4cf759cc79239f7b179b0ffacaa9a75d522b39400f818301527fe0aacc3a18ef84f81cc6ccd9ffda212f4a39a80cf42fda9f7c775397b63887b6818401527fc89efdaa54c0f20c7adf612882df0950f5a951637e0307cdcb4c672f298b8bc660608201524660808201523060a0808301919091528351808303909101815260c0909101909252815191012090565b60a05260805160a051610caa6101106000396000610592015260006104990152610caa6000f3fe608060405234801561001057600080fd5b50600436106100f55760003560e01c806340c10f19116100975780639dc29fac116100665780639dc29fac14610273578063a9059cbb14610286578063d505accf14610299578063dd62ed3e146102ac57600080fd5b806340c10f19146101e257806370a08231146101f75780637ecebe001461021757806395d89b411461023757600080fd5b806323b872dd116100d357806323b872dd1461018657806330adf81f14610199578063313ce567146101c05780633644e515146101da57600080fd5b806306fdde03146100fa578063095ea7b31461014c57806318160ddd1461016f575b600080fd5b6101366040518060400160405280601d81526020017f4e756d6f656e205265706c69636174696e67204465726976617469766500000081525081565b6040516101439190610a85565b60405180910390f35b61015f61015a366004610b1a565b6102d7565b6040519015158152602001610143565b61017860005481565b604051908152602001610143565b61015f610194366004610b44565b610351565b6101787f6e71edae12b1b97f4d1f60370fef10105fa2faae0126114a169c64845d6126c981565b6101c8601281565b60405160ff9091168152602001610143565b610178610495565b6101f56101f0366004610b1a565b6105b4565b005b610178610205366004610b80565b60016020526000908152604090205481565b610178610225366004610b80565b60036020526000908152604090205481565b6101366040518060400160405280600381526020017f4e5244000000000000000000000000000000000000000000000000000000000081525081565b6101f5610281366004610b1a565b6105c2565b61015f610294366004610b1a565b6105cc565b6101f56102a7366004610ba2565b610651565b6101786102ba366004610c15565b600260209081526000928352604080842090915290825290205481565b33600081815260026020908152604080832073ffffffffffffffffffffffffffffffffffffffff8716808552925280832085905551919290917f8c5be1e5ebec7d5bd14f71427d1e84f3dd0314c0f7b2291e5b200ac8c7c3b9259061033f9086815260200190565b60405180910390a35060015b92915050565b73ffffffffffffffffffffffffffffffffffffffff831660009081526002602090815260408083203384529091528120547fffffffffffffffffffffffffffffffffffffffffffffffffffffffffffffffff81146103e5576103b38382610c77565b73ffffffffffffffffffffffffffffffffffffffff861660009081526002602090815260408083203384529091529020555b73ffffffffffffffffffffffffffffffffffffffff85166000908152600160205260408120805485929061041a908490610c77565b909155505073ffffffffffffffffffffffffffffffffffffffff808516600081815260016020526040908190208054870190555190918716907fddf252ad1be2c89b69c2b068fc378daa952ba7f163c4a11628f55a4df523b3ef906104829087815260200190565b60405180910390a3506001949350505050565b60007f0000000000000000000000000000000000000000000000000000000000000000461461058f5750604080518082018252601d81527f4e756d6f656e205265706c69636174696e67204465726976617469766500000060209182015281517f8b73c3c69bb8fe3d512ecc4cf759cc79239f7b179b0ffacaa9a75d522b39400f818301527fe0aacc3a18ef84f81cc6ccd9ffda212f4a39a80cf42fda9f7c775397b63887b6818401527fc89efdaa54c0f20c7adf612882df0950f5a951637e0307cdcb4c672f298b8bc660608201524660808201523060a0808301919091528351808303909101815260c0909101909252815191012090565b507f000000000000000000000000000000000000000000000000000000000000000090565b6105be8282610982565b5050565b6105be82826109fa565b336000908152600160205260408120805483919083906105ed908490610c77565b909155505073ffffffffffffffffffffffffffffffffffffffff8316600081815260016020526040908190208054850190555133907fddf252ad1be2c89b69c2b068fc378daa952ba7f163c4a11628f55a4df523b3ef9061033f9086815260200190565b428410156106c0576040517f08c379a000000000000000000000000000000000000000000000000000000000815260206004820152601760248201527f5045524d49545f444541444c494e455f4558504952454400000000000000000060448201526064015b60405180910390fd5b60006106ca610495565b73ffffffffffffffffffffffffffffffffffffffff89811660008181526003602090815260409182902080546001810190915582517f6e71edae12b1b97f4d1f60370fef10105fa2faae0126114a169c64845d6126c98184015280840194909452938c166060840152608083018b905260a083019390935260c08083018a90528151808403909101815260e0830190915280519201919091207f190100000000000000000000000000000000000000000000000000000000000061010083015261010282019290925261012281019190915261014201604080517fffffffffffffffffffffffffffffffffffffffffffffffffffffffffffffffe08184030181528282528051602091820120600080855291840180845281905260ff88169284019290925260608301869052608083018590529092509060019060a0016020604051602081039080840390855afa158015610829573d6000803e3d6000fd5b50506040517fffffffffffffffffffffffffffffffffffffffffffffffffffffffffffffffe0015191505073ffffffffffffffffffffffffffffffffffffffff8116158015906108a457508873ffffffffffffffffffffffffffffffffffffffff168173ffffffffffffffffffffffffffffffffffffffff16145b61090a576040517f08c379a000000000000000000000000000000000000000000000000000000000815260206004820152600e60248201527f494e56414c49445f5349474e455200000000000000000000000000000000000060448201526064016106b7565b73ffffffffffffffffffffffffffffffffffffffff90811660009081526002602090815260408083208b8516808552908352928190208a905551898152919350918a16917f8c5be1e5ebec7d5bd14f71427d1e84f3dd0314c0f7b2291e5b200ac8c7c3b925910160405180910390a350505050505050565b806000808282546109939190610c8a565b909155505073ffffffffffffffffffffffffffffffffffffffff82166000818152600160209081526040808320805486019055518481527fddf252ad1be2c89b69c2b068fc378daa952ba7f163c4a11628f55a4df523b3ef91015b60405180910390a35050565b73ffffffffffffffffffffffffffffffffffffffff821660009081526001602052604081208054839290610a2f908490610c77565b909155505060008054829003815560405182815273ffffffffffffffffffffffffffffffffffffffff8416907fddf252ad1be2c89b69c2b068fc378daa952ba7f163c4a11628f55a4df523b3ef906020016109ee565b600060208083528351808285015260005b81811015610ab257858101830151858201604001528201610a96565b5060006040828601015260407fffffffffffffffffffffffffffffffffffffffffffffffffffffffffffffffe0601f8301168501019250505092915050565b803573ffffffffffffffffffffffffffffffffffffffff81168114610b1557600080fd5b919050565b60008060408385031215610b2d57600080fd5b610b3683610af1565b946020939093013593505050565b600080600060608486031215610b5957600080fd5b610b6284610af1565b9250610b7060208501610af1565b9150604084013590509250925092565b600060208284031215610b9257600080fd5b610b9b82610af1565b9392505050565b600080600080600080600060e0888a031215610bbd57600080fd5b610bc688610af1565b9650610bd460208901610af1565b95506040880135945060608801359350608088013560ff81168114610bf857600080fd5b9699959850939692959460a0840135945060c09093013592915050565b60008060408385031215610c2857600080fd5b610c3183610af1565b9150610c3f60208401610af1565b90509250929050565b7f4e487b7100000000000000000000000000000000000000000000000000000000600052601160045260246000fd5b8181038181111561034b5761034b610c48565b8082018082111561034b5761034b610c4856fea164736f6c6343000811000a",
    "linkReferences": {}
  },
  "methodIdentifiers": {
    "DOMAIN_SEPARATOR()": "3644e515",
    "PERMIT_TYPEHASH()": "30adf81f",
    "allowance(address,address)": "dd62ed3e",
    "approve(address,uint256)": "095ea7b3",
    "balanceOf(address)": "70a08231",
    "burn(address,uint256)": "9dc29fac",
    "decimals()": "313ce567",
    "mint(address,uint256)": "40c10f19",
    "name()": "06fdde03",
    "nonces(address)": "7ecebe00",
    "permit(address,address,uint256,uint256,uint8,bytes32,bytes32)": "d505accf",
    "symbol()": "95d89b41",
    "totalSupply()": "18160ddd",
    "transfer(address,uint256)": "a9059cbb",
    "transferFrom(address,address,uint256)": "23b872dd"
  },
  "id": 76
}