{
  "abi": [
    {
      "inputs": [
        {
          "internalType": "address",
          "name": "_factory",
          "type": "address"
        },
        {
          "internalType": "address",
          "name": "_weth",
          "type": "address"
        }
      ],
      "stateMutability": "nonpayable",
      "type": "constructor"
    },
    {
      "inputs": [],
      "name": "AmountError",
      "type": "error"
    },
    {
      "inputs": [],
      "name": "BalanceReturnError",
      "type": "error"
    },
    {
      "inputs": [],
      "name": "CollectError",
      "type": "error"
    },
    {
      "inputs": [],
      "name": "FailedTransfer",
      "type": "error"
    },
    {
      "inputs": [],
      "name": "FailedTransferETH",
      "type": "error"
    },
    {
      "inputs": [],
      "name": "FailedTransferFrom",
      "type": "error"
    },
    {
      "inputs": [],
      "name": "InsufficientOutputError",
      "type": "error"
    },
    {
      "inputs": [],
      "name": "LivelinessError",
      "type": "error"
    },
    {
      "inputs": [],
      "name": "PositionInvalidError",
      "type": "error"
    },
    {
      "inputs": [],
      "name": "ValidationError",
      "type": "error"
    },
    {
      "anonymous": false,
      "inputs": [
        {
          "indexed": true,
          "internalType": "address",
          "name": "from",
          "type": "address"
        },
        {
          "indexed": true,
          "internalType": "address",
          "name": "lendgine",
          "type": "address"
        },
        {
          "indexed": false,
          "internalType": "uint256",
          "name": "liquidity",
          "type": "uint256"
        },
        {
          "indexed": false,
          "internalType": "uint256",
          "name": "size",
          "type": "uint256"
        },
        {
          "indexed": false,
          "internalType": "uint256",
          "name": "amount0",
          "type": "uint256"
        },
        {
          "indexed": false,
          "internalType": "uint256",
          "name": "amount1",
          "type": "uint256"
        },
        {
          "indexed": true,
          "internalType": "address",
          "name": "to",
          "type": "address"
        }
      ],
      "name": "AddLiquidity",
      "type": "event"
    },
    {
      "anonymous": false,
      "inputs": [
        {
          "indexed": true,
          "internalType": "address",
          "name": "from",
          "type": "address"
        },
        {
          "indexed": true,
          "internalType": "address",
          "name": "lendgine",
          "type": "address"
        },
        {
          "indexed": false,
          "internalType": "uint256",
          "name": "amount",
          "type": "uint256"
        },
        {
          "indexed": true,
          "internalType": "address",
          "name": "to",
          "type": "address"
        }
      ],
      "name": "Collect",
      "type": "event"
    },
    {
      "anonymous": false,
      "inputs": [
        {
          "indexed": true,
          "internalType": "address",
          "name": "from",
          "type": "address"
        },
        {
          "indexed": true,
          "internalType": "address",
          "name": "lendgine",
          "type": "address"
        },
        {
          "indexed": false,
          "internalType": "uint256",
          "name": "liquidity",
          "type": "uint256"
        },
        {
          "indexed": false,
          "internalType": "uint256",
          "name": "size",
          "type": "uint256"
        },
        {
          "indexed": false,
          "internalType": "uint256",
          "name": "amount0",
          "type": "uint256"
        },
        {
          "indexed": false,
          "internalType": "uint256",
          "name": "amount1",
          "type": "uint256"
        },
        {
          "indexed": true,
          "internalType": "address",
          "name": "to",
          "type": "address"
        }
      ],
      "name": "RemoveLiquidity",
      "type": "event"
    },
    {
      "inputs": [
        {
          "components": [
            {
              "internalType": "address",
              "name": "token0",
              "type": "address"
            },
            {
              "internalType": "address",
              "name": "token1",
              "type": "address"
            },
            {
              "internalType": "uint256",
              "name": "token0Exp",
              "type": "uint256"
            },
            {
              "internalType": "uint256",
              "name": "token1Exp",
              "type": "uint256"
            },
            {
              "internalType": "uint256",
              "name": "upperBound",
              "type": "uint256"
            },
            {
              "internalType": "uint256",
              "name": "liquidity",
              "type": "uint256"
            },
            {
              "internalType": "uint256",
              "name": "amount0Min",
              "type": "uint256"
            },
            {
              "internalType": "uint256",
              "name": "amount1Min",
              "type": "uint256"
            },
            {
              "internalType": "uint256",
              "name": "sizeMin",
              "type": "uint256"
            },
            {
              "internalType": "address",
              "name": "recipient",
              "type": "address"
            },
            {
              "internalType": "uint256",
              "name": "deadline",
              "type": "uint256"
            }
          ],
          "internalType": "struct LiquidityManager.AddLiquidityParams",
          "name": "params",
          "type": "tuple"
        }
      ],
      "name": "addLiquidity",
      "outputs": [],
      "stateMutability": "payable",
      "type": "function"
    },
    {
      "inputs": [
        {
          "components": [
            {
              "internalType": "address",
              "name": "lendgine",
              "type": "address"
            },
            {
              "internalType": "address",
              "name": "recipient",
              "type": "address"
            },
            {
              "internalType": "uint256",
              "name": "amountRequested",
              "type": "uint256"
            }
          ],
          "internalType": "struct LiquidityManager.CollectParams",
          "name": "params",
          "type": "tuple"
        }
      ],
      "name": "collect",
      "outputs": [
        {
          "internalType": "uint256",
          "name": "amount",
          "type": "uint256"
        }
      ],
      "stateMutability": "payable",
      "type": "function"
    },
    {
      "inputs": [],
      "name": "factory",
      "outputs": [
        {
          "internalType": "address",
          "name": "",
          "type": "address"
        }
      ],
      "stateMutability": "view",
      "type": "function"
    },
    {
      "inputs": [
        {
          "internalType": "bytes[]",
          "name": "data",
          "type": "bytes[]"
        }
      ],
      "name": "multicall",
      "outputs": [
        {
          "internalType": "bytes[]",
          "name": "results",
          "type": "bytes[]"
        }
      ],
      "stateMutability": "payable",
      "type": "function"
    },
    {
      "inputs": [
        {
          "internalType": "uint256",
          "name": "",
          "type": "uint256"
        },
        {
          "internalType": "bytes",
          "name": "data",
          "type": "bytes"
        }
      ],
      "name": "pairMintCallback",
      "outputs": [],
      "stateMutability": "nonpayable",
      "type": "function"
    },
    {
      "inputs": [
        {
          "internalType": "address",
          "name": "",
          "type": "address"
        },
        {
          "internalType": "address",
          "name": "",
          "type": "address"
        }
      ],
      "name": "positions",
      "outputs": [
        {
          "internalType": "uint256",
          "name": "size",
          "type": "uint256"
        },
        {
          "internalType": "uint256",
          "name": "rewardPerPositionPaid",
          "type": "uint256"
        },
        {
          "internalType": "uint256",
          "name": "tokensOwed",
          "type": "uint256"
        }
      ],
      "stateMutability": "view",
      "type": "function"
    },
    {
      "inputs": [],
      "name": "refundETH",
      "outputs": [],
      "stateMutability": "payable",
      "type": "function"
    },
    {
      "inputs": [
        {
          "components": [
            {
              "internalType": "address",
              "name": "token0",
              "type": "address"
            },
            {
              "internalType": "address",
              "name": "token1",
              "type": "address"
            },
            {
              "internalType": "uint256",
              "name": "token0Exp",
              "type": "uint256"
            },
            {
              "internalType": "uint256",
              "name": "token1Exp",
              "type": "uint256"
            },
            {
              "internalType": "uint256",
              "name": "upperBound",
              "type": "uint256"
            },
            {
              "internalType": "uint256",
              "name": "size",
              "type": "uint256"
            },
            {
              "internalType": "uint256",
              "name": "amount0Min",
              "type": "uint256"
            },
            {
              "internalType": "uint256",
              "name": "amount1Min",
              "type": "uint256"
            },
            {
              "internalType": "address",
              "name": "recipient",
              "type": "address"
            },
            {
              "internalType": "uint256",
              "name": "deadline",
              "type": "uint256"
            }
          ],
          "internalType": "struct LiquidityManager.RemoveLiquidityParams",
          "name": "params",
          "type": "tuple"
        }
      ],
      "name": "removeLiquidity",
      "outputs": [],
      "stateMutability": "payable",
      "type": "function"
    },
    {
      "inputs": [
        {
          "internalType": "address",
          "name": "token",
          "type": "address"
        },
        {
          "internalType": "uint256",
          "name": "value",
          "type": "uint256"
        },
        {
          "internalType": "uint256",
          "name": "deadline",
          "type": "uint256"
        },
        {
          "internalType": "uint8",
          "name": "v",
          "type": "uint8"
        },
        {
          "internalType": "bytes32",
          "name": "r",
          "type": "bytes32"
        },
        {
          "internalType": "bytes32",
          "name": "s",
          "type": "bytes32"
        }
      ],
      "name": "selfPermit",
      "outputs": [],
      "stateMutability": "payable",
      "type": "function"
    },
    {
      "inputs": [
        {
          "internalType": "address",
          "name": "token",
          "type": "address"
        },
        {
          "internalType": "uint256",
          "name": "nonce",
          "type": "uint256"
        },
        {
          "internalType": "uint256",
          "name": "expiry",
          "type": "uint256"
        },
        {
          "internalType": "uint8",
          "name": "v",
          "type": "uint8"
        },
        {
          "internalType": "bytes32",
          "name": "r",
          "type": "bytes32"
        },
        {
          "internalType": "bytes32",
          "name": "s",
          "type": "bytes32"
        }
      ],
      "name": "selfPermitAllowed",
      "outputs": [],
      "stateMutability": "payable",
      "type": "function"
    },
    {
      "inputs": [
        {
          "internalType": "address",
          "name": "token",
          "type": "address"
        },
        {
          "internalType": "uint256",
          "name": "amountMinimum",
          "type": "uint256"
        },
        {
          "internalType": "address",
          "name": "recipient",
          "type": "address"
        }
      ],
      "name": "sweepToken",
      "outputs": [],
      "stateMutability": "payable",
      "type": "function"
    },
    {
      "inputs": [
        {
          "internalType": "uint256",
          "name": "amountMinimum",
          "type": "uint256"
        },
        {
          "internalType": "address",
          "name": "recipient",
          "type": "address"
        }
      ],
      "name": "unwrapWETH",
      "outputs": [],
      "stateMutability": "payable",
      "type": "function"
    },
    {
      "inputs": [],
      "name": "weth",
      "outputs": [
        {
          "internalType": "address",
          "name": "",
          "type": "address"
        }
      ],
      "stateMutability": "view",
      "type": "function"
    },
    {
      "stateMutability": "payable",
      "type": "receive"
    }
  ],
  "bytecode": {
    "object": "0x60c06040523480156200001157600080fd5b50604051620024e2380380620024e2833981016040819052620000349162000069565b6001600160a01b039081166080521660a052620000a1565b80516001600160a01b03811681146200006457600080fd5b919050565b600080604083850312156200007d57600080fd5b62000088836200004c565b915062000098602084016200004c565b90509250929050565b60805160a0516123dd62000105600039600081816102d6015281816103980152818161074d015261152501526000818160f3015281816101c5015281816113f90152818161148e01528181611b1a01528181611b7a0152611bfe01526123dd6000f3fe6080604052600436106100d65760003560e01c8063ac9650d81161007f578063df2ab5bb11610059578063df2ab5bb146102f8578063e16d9ce51461030b578063ef4ae61c1461031e578063f3995c671461033e57600080fd5b8063ac9650d814610283578063bf538cec146102a3578063c45a0155146102c457600080fd5b80633fc8cef3116100b05780633fc8cef3146101b35780634659a494146102115780634bd214451461022457600080fd5b80630240765c1461018557806312210e8a146101985780633c3cf25c146101a057600080fd5b36610180573373ffffffffffffffffffffffffffffffffffffffff7f0000000000000000000000000000000000000000000000000000000000000000161461017e576040517f08c379a000000000000000000000000000000000000000000000000000000000815260206004820152600960248201527f4e6f742057455448390000000000000000000000000000000000000000000000604482015260640160405180910390fd5b005b600080fd5b61017e610193366004611d55565b610351565b61017e6106f4565b61017e6101ae366004611d68565b610706565b3480156101bf57600080fd5b506101e77f000000000000000000000000000000000000000000000000000000000000000081565b60405173ffffffffffffffffffffffffffffffffffffffff90911681526020015b60405180910390f35b61017e61021f366004611da4565b610dab565b34801561023057600080fd5b5061026861023f366004611e04565b600060208181529281526040808220909352908152208054600182015460029092015490919083565b60408051938452602084019290925290820152606001610208565b610296610291366004611e37565b610e66565b6040516102089190611f1a565b6102b66102b1366004611f9a565b610f87565b604051908152602001610208565b3480156102d057600080fd5b506101e77f000000000000000000000000000000000000000000000000000000000000000081565b61017e610306366004611fac565b611394565b61017e610319366004611fe8565b6113f2565b34801561032a57600080fd5b5061017e61033936600461200b565b61150e565b61017e61034c366004611da4565b6115fe565b80610120013542811015610391576040517f0756982f00000000000000000000000000000000000000000000000000000000815260040160405180910390fd5b60006103e87f00000000000000000000000000000000000000000000000000000000000000006103c46020860186612087565b6103d46040870160208801612087565b86604001358760600135886080013561167b565b90506000806103ff61012086016101008701612087565b73ffffffffffffffffffffffffffffffffffffffff16146104315761042c61012085016101008601612087565b610433565b305b6040517ff3fef3a300000000000000000000000000000000000000000000000000000000815273ffffffffffffffffffffffffffffffffffffffff808316600483015260a087013560248301529192506000918291829186169063f3fef3a3906044016060604051808303816000875af11580156104b5573d6000803e3d6000fd5b505050506040513d601f19601f820116820180604052508101906104d991906120a2565b9250925092508660c001358310806104f457508660e0013582105b1561052b576040517f4ff64a9f00000000000000000000000000000000000000000000000000000000815260040160405180910390fd5b3360009081526020818152604080832073ffffffffffffffffffffffffffffffffffffffff8916808552908352818420825160608101845281548152600182015494810194909452600201548383015290517f55f575100000000000000000000000000000000000000000000000000000000081523060048201529192916355f5751090602401606060405180830381865afa1580156105cf573d6000803e3d6000fd5b505050506040513d601f19601f820116820180604052508101906105f391906120a2565b5091505061061d826000015183602001518361060f91906120ff565b670de0b6b3a76400006117c6565b8260400181815161062e9190612118565b90525060208201819052815160a08a013590839061064d9083906120ff565b9052503360008181526020818152604080832073ffffffffffffffffffffffffffffffffffffffff8c8116808652918452938290208751815583880151600182015582880151600290910155815188815260a08f0135938101939093529082018990526060820188905291891692907f5312437ddb951873c9db745b1c647e60c85f4d085b20a0f59e508e275b5220489060800160405180910390a4505050505050505050565b4715610704576107043347611898565b565b80610140013542811015610746576040517f0756982f00000000000000000000000000000000000000000000000000000000815260040160405180910390fd5b60006107797f00000000000000000000000000000000000000000000000000000000000000006103c46020860186612087565b905060008173ffffffffffffffffffffffffffffffffffffffff1663443cb4bc6040518163ffffffff1660e01b8152600401602060405180830381865afa1580156107c8573d6000803e3d6000fd5b505050506040513d601f19601f820116820180604052508101906107ec919061212b565b6effffffffffffffffffffffffffffff16905060008273ffffffffffffffffffffffffffffffffffffffff16635a76f25e6040518163ffffffff1660e01b8152600401602060405180830381865afa15801561084c573d6000803e3d6000fd5b505050506040513d601f19601f82011682018060405250810190610870919061212b565b6effffffffffffffffffffffffffffff16905060008373ffffffffffffffffffffffffffffffffffffffff166315770f926040518163ffffffff1660e01b8152600401602060405180830381865afa1580156108d0573d6000803e3d6000fd5b505050506040513d601f19601f820116820180604052508101906108f4919061215c565b90506000808260000361091257505060c086013560e0870135610935565b6109218860a0013586856118dd565b91506109328860a0013585856118dd565b90505b8760c0013582108061094a57508760e0013581105b15610981576040517f4ff64a9f00000000000000000000000000000000000000000000000000000000815260040160405180910390fd5b60008673ffffffffffffffffffffffffffffffffffffffff166349bdc2b8308b60a001356040518061010001604052808e60000160208101906109c49190612087565b73ffffffffffffffffffffffffffffffffffffffff1681526020018e60200160208101906109f29190612087565b73ffffffffffffffffffffffffffffffffffffffff1681526020018e6040013581526020018e6060013581526020018e6080013581526020018881526020018781526020013373ffffffffffffffffffffffffffffffffffffffff16815250604051602001610ad1919060006101008201905073ffffffffffffffffffffffffffffffffffffffff80845116835280602085015116602084015260408401516040840152606084015160608401526080840151608084015260a084015160a084015260c084015160c08401528060e08501511660e08401525092915050565b6040516020818303038152906040526040518463ffffffff1660e01b8152600401610afe93929190612175565b6020604051808303816000875af1158015610b1d573d6000803e3d6000fd5b505050506040513d601f19601f82011682018060405250810190610b41919061215c565b9050886101000135811015610b82576040517f4ff64a9f00000000000000000000000000000000000000000000000000000000815260040160405180910390fd5b60008080610b986101408d016101208e01612087565b73ffffffffffffffffffffffffffffffffffffffff908116825260208083019390935260409182016000908120918c16808252918452828120835160608101855281548152600182015495810195909552600201548484015291517f55f5751000000000000000000000000000000000000000000000000000000000815230600482015292935090916355f5751090602401606060405180830381865afa158015610c47573d6000803e3d6000fd5b505050506040513d601f19601f82011682018060405250810190610c6b91906120a2565b50915050610c87826000015183602001518361060f91906120ff565b82604001818151610c989190612118565b90525060208201819052815183908390610cb3908390612118565b91508181525050816000808d610120016020810190610cd29190612087565b73ffffffffffffffffffffffffffffffffffffffff908116825260208083019390935260409182016000908120918e168152908352819020835181559183015160018301559190910151600290910155610d346101408c016101208d01612087565b6040805160a08e01358152602081018690529081018790526060810186905273ffffffffffffffffffffffffffffffffffffffff918216918b169033907f8545349f7f0fb7fe8c04555387125dbcf98dcb17213ef7d73b7cc5d4bacc5a879060800160405180910390a45050505050505050505050565b6040517f8fcbaf0c00000000000000000000000000000000000000000000000000000000815233600482015230602482015260448101869052606481018590526001608482015260ff841660a482015260c4810183905260e4810182905273ffffffffffffffffffffffffffffffffffffffff871690638fcbaf0c90610104015b600060405180830381600087803b158015610e4657600080fd5b505af1158015610e5a573d6000803e3d6000fd5b50505050505050505050565b60608167ffffffffffffffff811115610e8157610e816121aa565b604051908082528060200260200182016040528015610eb457816020015b6060815260200190600190039081610e9f5790505b50905060005b82811015610f805760008030868685818110610ed857610ed86121d9565b9050602002810190610eea9190612208565b604051610ef8929190612274565b600060405180830381855af49150503d8060008114610f33576040519150601f19603f3d011682016040523d82523d6000602084013e610f38565b606091505b509150915081610f58578051600003610f5057600080fd5b805181602001fd5b80848481518110610f6b57610f6b6121d9565b60209081029190910101525050600101610eba565b5092915050565b6000610f966020830183612087565b73ffffffffffffffffffffffffffffffffffffffff16634fd9b90a6040518163ffffffff1660e01b8152600401600060405180830381600087803b158015610fdd57600080fd5b505af1158015610ff1573d6000803e3d6000fd5b506000925082915061100b90506040850160208601612087565b73ffffffffffffffffffffffffffffffffffffffff161461103b576110366040840160208501612087565b61103d565b305b336000908152602081815260408220929350909190829061106090870187612087565b73ffffffffffffffffffffffffffffffffffffffff1681526020808201929092526040908101600090812082516060810184528154815260018201548186015260029091015492810192909252909250906110bd90860186612087565b6040517f55f5751000000000000000000000000000000000000000000000000000000000815230600482015273ffffffffffffffffffffffffffffffffffffffff91909116906355f5751090602401606060405180830381865afa158015611129573d6000803e3d6000fd5b505050506040513d601f19601f8201168201806040525081019061114d91906120a2565b50915050611169826000015183602001518361060f91906120ff565b8260400181815161117a9190612118565b90525060208201819052604080830151908601351161119d5784604001356111a3565b81604001515b935083826040018181516111b791906120ff565b905250336000908152602081815260408220849290916111d990890189612087565b73ffffffffffffffffffffffffffffffffffffffff1681526020808201929092526040908101600090812084518155848401516001820155939091015160029093019290925561122b90870187612087565b6040517f6b8357ac00000000000000000000000000000000000000000000000000000000815273ffffffffffffffffffffffffffffffffffffffff8681166004830152602482018890529190911690636b8357ac906044016020604051808303816000875af11580156112a2573d6000803e3d6000fd5b505050506040513d601f19601f820116820180604052508101906112c6919061215c565b9050848114611301576040517f8ad721cb00000000000000000000000000000000000000000000000000000000815260040160405180910390fd5b73ffffffffffffffffffffffffffffffffffffffff84166113256020880188612087565b73ffffffffffffffffffffffffffffffffffffffff163373ffffffffffffffffffffffffffffffffffffffff167f86390ac345e69f587c2d36e67d2de5fe2b5f913fdf3a3a72442d5126aa8994008860405161138391815260200190565b60405180910390a450505050919050565b600061139f84611918565b9050828110156113db576040517fd5ab59fe00000000000000000000000000000000000000000000000000000000815260040160405180910390fd5b80156113ec576113ec848383611a81565b50505050565b600061141d7f0000000000000000000000000000000000000000000000000000000000000000611918565b905082811015611459576040517fd5ab59fe00000000000000000000000000000000000000000000000000000000815260040160405180910390fd5b8015611509576040517f2e1a7d4d000000000000000000000000000000000000000000000000000000008152600481018290527f000000000000000000000000000000000000000000000000000000000000000073ffffffffffffffffffffffffffffffffffffffff1690632e1a7d4d90602401600060405180830381600087803b1580156114e757600080fd5b505af11580156114fb573d6000803e3d6000fd5b505050506115098282611898565b505050565b600061151c82840184612284565b905060006115627f00000000000000000000000000000000000000000000000000000000000000008360000151846020015185604001518660600151876080015161167b565b905073ffffffffffffffffffffffffffffffffffffffff811633146115b3576040517fae64f5e500000000000000000000000000000000000000000000000000000000815260040160405180910390fd5b60a0820151156115d5576115d582600001518360e00151338560a00151611b18565b60c0820151156115f7576115f782602001518360e00151338560c00151611b18565b5050505050565b6040517fd505accf000000000000000000000000000000000000000000000000000000008152336004820152306024820152604481018690526064810185905260ff8416608482015260a4810183905260c4810182905273ffffffffffffffffffffffffffffffffffffffff87169063d505accf9060e401610e2c565b6040805173ffffffffffffffffffffffffffffffffffffffff8088166020830152861691810191909152606081018490526080810183905260a08101829052600090879060c001604080517fffffffffffffffffffffffffffffffffffffffffffffffffffffffffffffffe0818403018152908290528051602091820120611785939290917e2893fe80ad155f8c0156e72dc590bc60e0fea81e5d8f68747efb125342585e91017fff00000000000000000000000000000000000000000000000000000000000000815260609390931b7fffffffffffffffffffffffffffffffffffffffff0000000000000000000000001660018401526015830191909152603582015260550190565b604080517fffffffffffffffffffffffffffffffffffffffffffffffffffffffffffffffe08184030181529190528051602090910120979650505050505050565b600080807fffffffffffffffffffffffffffffffffffffffffffffffffffffffffffffffff8587098587029250828110838203039150508060000361181d576000841161181257600080fd5b508290049050611891565b80841161182957600080fd5b600084868809851960019081018716968790049682860381900495909211909303600082900391909104909201919091029190911760038402600290811880860282030280860282030280860282030280860282030280860282030280860290910302029150505b9392505050565b600080600080600085875af1905080611509576040517fe293b56b00000000000000000000000000000000000000000000000000000000815260040160405180910390fd5b60006118ea8484846117c6565b9050600082806118fc576118fc61234d565b8486091115611891578061190f8161237c565b95945050505050565b604080518082018252601281527f62616c616e63654f662861646472657373290000000000000000000000000000602091820152815130602480830191909152835180830390910181526044909101835290810180517bffffffffffffffffffffffffffffffffffffffffffffffffffffffff167f70a082310000000000000000000000000000000000000000000000000000000017905290516000918291829173ffffffffffffffffffffffffffffffffffffffff8616916119db91906123b4565b600060405180830381855afa9150503d8060008114611a16576040519150601f19603f3d011682016040523d82523d6000602084013e611a1b565b606091505b5091509150811580611a2e575060208151105b15611a65576040517f7613bc8900000000000000000000000000000000000000000000000000000000815260040160405180910390fd5b80806020019051810190611a79919061215c565b949350505050565b60006040517fa9059cbb00000000000000000000000000000000000000000000000000000000815273ffffffffffffffffffffffffffffffffffffffff841660048201528260248201526000806044836000895af1915050611ae281611c5d565b6113ec576040517fbfa871c500000000000000000000000000000000000000000000000000000000815260040160405180910390fd5b7f000000000000000000000000000000000000000000000000000000000000000073ffffffffffffffffffffffffffffffffffffffff168473ffffffffffffffffffffffffffffffffffffffff16148015611b735750804710155b15611c29577f000000000000000000000000000000000000000000000000000000000000000073ffffffffffffffffffffffffffffffffffffffff1663d0e30db0826040518263ffffffff1660e01b81526004016000604051808303818588803b158015611be057600080fd5b505af1158015611bf4573d6000803e3d6000fd5b5050505050611c247f00000000000000000000000000000000000000000000000000000000000000008383611a81565b6113ec565b3073ffffffffffffffffffffffffffffffffffffffff841603611c5157611c24848383611a81565b6113ec84848484611ca2565b600081611c6e573d6000803e3d6000fd5b3d60208114611c86578015611c975760009150611c9c565b3d6000803e60005115159150611c9c565b600191505b50919050565b60006040517f23b872dd00000000000000000000000000000000000000000000000000000000815273ffffffffffffffffffffffffffffffffffffffff8516600482015273ffffffffffffffffffffffffffffffffffffffff8416602482015282604482015260008060648360008a5af1915050611d1f81611c5d565b6115f7576040517fa83c475400000000000000000000000000000000000000000000000000000000815260040160405180910390fd5b60006101408284031215611c9c57600080fd5b60006101608284031215611c9c57600080fd5b803573ffffffffffffffffffffffffffffffffffffffff81168114611d9f57600080fd5b919050565b60008060008060008060c08789031215611dbd57600080fd5b611dc687611d7b565b95506020870135945060408701359350606087013560ff81168114611dea57600080fd5b9598949750929560808101359460a0909101359350915050565b60008060408385031215611e1757600080fd5b611e2083611d7b565b9150611e2e60208401611d7b565b90509250929050565b60008060208385031215611e4a57600080fd5b823567ffffffffffffffff80821115611e6257600080fd5b818501915085601f830112611e7657600080fd5b813581811115611e8557600080fd5b8660208260051b8501011115611e9a57600080fd5b60209290920196919550909350505050565b60005b83811015611ec7578181015183820152602001611eaf565b50506000910152565b60008151808452611ee8816020860160208601611eac565b601f017fffffffffffffffffffffffffffffffffffffffffffffffffffffffffffffffe0169290920160200192915050565b6000602080830181845280855180835260408601915060408160051b870101925083870160005b82811015611f8d577fffffffffffffffffffffffffffffffffffffffffffffffffffffffffffffffc0888603018452611f7b858351611ed0565b94509285019290850190600101611f41565b5092979650505050505050565b600060608284031215611c9c57600080fd5b600080600060608486031215611fc157600080fd5b611fca84611d7b565b925060208401359150611fdf60408501611d7b565b90509250925092565b60008060408385031215611ffb57600080fd5b82359150611e2e60208401611d7b565b60008060006040848603121561202057600080fd5b83359250602084013567ffffffffffffffff8082111561203f57600080fd5b818601915086601f83011261205357600080fd5b81358181111561206257600080fd5b87602082850101111561207457600080fd5b6020830194508093505050509250925092565b60006020828403121561209957600080fd5b61189182611d7b565b6000806000606084860312156120b757600080fd5b8351925060208401519150604084015190509250925092565b7f4e487b7100000000000000000000000000000000000000000000000000000000600052601160045260246000fd5b81810381811115612112576121126120d0565b92915050565b80820180821115612112576121126120d0565b60006020828403121561213d57600080fd5b81516effffffffffffffffffffffffffffff8116811461189157600080fd5b60006020828403121561216e57600080fd5b5051919050565b73ffffffffffffffffffffffffffffffffffffffff8416815282602082015260606040820152600061190f6060830184611ed0565b7f4e487b7100000000000000000000000000000000000000000000000000000000600052604160045260246000fd5b7f4e487b7100000000000000000000000000000000000000000000000000000000600052603260045260246000fd5b60008083357fffffffffffffffffffffffffffffffffffffffffffffffffffffffffffffffe184360301811261223d57600080fd5b83018035915067ffffffffffffffff82111561225857600080fd5b60200191503681900382131561226d57600080fd5b9250929050565b8183823760009101908152919050565b600061010080838503121561229857600080fd5b6040519081019067ffffffffffffffff821181831017156122e2577f4e487b7100000000000000000000000000000000000000000000000000000000600052604160045260246000fd5b816040526122ef84611d7b565b81526122fd60208501611d7b565b602082015260408401356040820152606084013560608201526080840135608082015260a084013560a082015260c084013560c082015261234060e08501611d7b565b60e0820152949350505050565b7f4e487b7100000000000000000000000000000000000000000000000000000000600052601260045260246000fd5b60007fffffffffffffffffffffffffffffffffffffffffffffffffffffffffffffffff82036123ad576123ad6120d0565b5060010190565b600082516123c6818460208701611eac565b919091019291505056fea164736f6c6343000811000a",
    "linkReferences": {}
  },
  "methodIdentifiers": {
    "addLiquidity((address,address,uint256,uint256,uint256,uint256,uint256,uint256,uint256,address,uint256))": "3c3cf25c",
    "collect((address,address,uint256))": "bf538cec",
    "factory()": "c45a0155",
    "multicall(bytes[])": "ac9650d8",
    "pairMintCallback(uint256,bytes)": "ef4ae61c",
    "positions(address,address)": "4bd21445",
    "refundETH()": "12210e8a",
    "removeLiquidity((address,address,uint256,uint256,uint256,uint256,uint256,uint256,address,uint256))": "0240765c",
    "selfPermit(address,uint256,uint256,uint8,bytes32,bytes32)": "f3995c67",
    "selfPermitAllowed(address,uint256,uint256,uint8,bytes32,bytes32)": "4659a494",
    "sweepToken(address,uint256,address)": "df2ab5bb",
    "unwrapWETH(uint256,address)": "e16d9ce5",
    "weth()": "3fc8cef3"
  },
  "id": 36
}