{
  "abi": [
    {
      "inputs": [
        {
          "internalType": "address",
          "name": "_factory",
          "type": "address"
        },
        {
          "internalType": "address",
          "name": "_uniswapV2Factory",
          "type": "address"
        },
        {
          "internalType": "address",
          "name": "_uniswapV3Factory",
          "type": "address"
        },
        {
          "internalType": "address",
          "name": "_weth",
          "type": "address"
        }
      ],
      "stateMutability": "nonpayable",
      "type": "constructor"
    },
    {
      "inputs": [],
      "name": "AmountError",
      "type": "error"
    },
    {
      "inputs": [],
      "name": "BalanceReturnError",
      "type": "error"
    },
    {
      "inputs": [],
      "name": "FailedTransfer",
      "type": "error"
    },
    {
      "inputs": [],
      "name": "FailedTransferETH",
      "type": "error"
    },
    {
      "inputs": [],
      "name": "FailedTransferFrom",
      "type": "error"
    },
    {
      "inputs": [],
      "name": "InsufficientOutputError",
      "type": "error"
    },
    {
      "inputs": [],
      "name": "LivelinessError",
      "type": "error"
    },
    {
      "inputs": [],
      "name": "ValidationError",
      "type": "error"
    },
    {
      "anonymous": false,
      "inputs": [
        {
          "indexed": true,
          "internalType": "address",
          "name": "from",
          "type": "address"
        },
        {
          "indexed": true,
          "internalType": "address",
          "name": "lendgine",
          "type": "address"
        },
        {
          "indexed": false,
          "internalType": "uint256",
          "name": "collateral",
          "type": "uint256"
        },
        {
          "indexed": false,
          "internalType": "uint256",
          "name": "shares",
          "type": "uint256"
        },
        {
          "indexed": true,
          "internalType": "address",
          "name": "to",
          "type": "address"
        }
      ],
      "name": "Burn",
      "type": "event"
    },
    {
      "anonymous": false,
      "inputs": [
        {
          "indexed": true,
          "internalType": "address",
          "name": "from",
          "type": "address"
        },
        {
          "indexed": true,
          "internalType": "address",
          "name": "lendgine",
          "type": "address"
        },
        {
          "indexed": false,
          "internalType": "uint256",
          "name": "collateral",
          "type": "uint256"
        },
        {
          "indexed": false,
          "internalType": "uint256",
          "name": "shares",
          "type": "uint256"
        },
        {
          "indexed": true,
          "internalType": "address",
          "name": "to",
          "type": "address"
        }
      ],
      "name": "Mint",
      "type": "event"
    },
    {
      "inputs": [
        {
          "components": [
            {
              "internalType": "address",
              "name": "token0",
              "type": "address"
            },
            {
              "internalType": "address",
              "name": "token1",
              "type": "address"
            },
            {
              "internalType": "uint256",
              "name": "token0Exp",
              "type": "uint256"
            },
            {
              "internalType": "uint256",
              "name": "token1Exp",
              "type": "uint256"
            },
            {
              "internalType": "uint256",
              "name": "upperBound",
              "type": "uint256"
            },
            {
              "internalType": "uint256",
              "name": "shares",
              "type": "uint256"
            },
            {
              "internalType": "uint256",
              "name": "collateralMin",
              "type": "uint256"
            },
            {
              "internalType": "uint256",
              "name": "amount0Min",
              "type": "uint256"
            },
            {
              "internalType": "uint256",
              "name": "amount1Min",
              "type": "uint256"
            },
            {
              "internalType": "enum SwapHelper.SwapType",
              "name": "swapType",
              "type": "uint8"
            },
            {
              "internalType": "bytes",
              "name": "swapExtraData",
              "type": "bytes"
            },
            {
              "internalType": "address",
              "name": "recipient",
              "type": "address"
            },
            {
              "internalType": "uint256",
              "name": "deadline",
              "type": "uint256"
            }
          ],
          "internalType": "struct LendgineRouter.BurnParams",
          "name": "params",
          "type": "tuple"
        }
      ],
      "name": "burn",
      "outputs": [
        {
          "internalType": "uint256",
          "name": "amount",
          "type": "uint256"
        }
      ],
      "stateMutability": "payable",
      "type": "function"
    },
    {
      "inputs": [],
      "name": "factory",
      "outputs": [
        {
          "internalType": "address",
          "name": "",
          "type": "address"
        }
      ],
      "stateMutability": "view",
      "type": "function"
    },
    {
      "inputs": [
        {
          "components": [
            {
              "internalType": "address",
              "name": "token0",
              "type": "address"
            },
            {
              "internalType": "address",
              "name": "token1",
              "type": "address"
            },
            {
              "internalType": "uint256",
              "name": "token0Exp",
              "type": "uint256"
            },
            {
              "internalType": "uint256",
              "name": "token1Exp",
              "type": "uint256"
            },
            {
              "internalType": "uint256",
              "name": "upperBound",
              "type": "uint256"
            },
            {
              "internalType": "uint256",
              "name": "amountIn",
              "type": "uint256"
            },
            {
              "internalType": "uint256",
              "name": "amountBorrow",
              "type": "uint256"
            },
            {
              "internalType": "uint256",
              "name": "sharesMin",
              "type": "uint256"
            },
            {
              "internalType": "enum SwapHelper.SwapType",
              "name": "swapType",
              "type": "uint8"
            },
            {
              "internalType": "bytes",
              "name": "swapExtraData",
              "type": "bytes"
            },
            {
              "internalType": "address",
              "name": "recipient",
              "type": "address"
            },
            {
              "internalType": "uint256",
              "name": "deadline",
              "type": "uint256"
            }
          ],
          "internalType": "struct LendgineRouter.MintParams",
          "name": "params",
          "type": "tuple"
        }
      ],
      "name": "mint",
      "outputs": [
        {
          "internalType": "uint256",
          "name": "shares",
          "type": "uint256"
        }
      ],
      "stateMutability": "payable",
      "type": "function"
    },
    {
      "inputs": [
        {
          "internalType": "uint256",
          "name": "collateralTotal",
          "type": "uint256"
        },
        {
          "internalType": "uint256",
          "name": "amount0",
          "type": "uint256"
        },
        {
          "internalType": "uint256",
          "name": "amount1",
          "type": "uint256"
        },
        {
          "internalType": "uint256",
          "name": "",
          "type": "uint256"
        },
        {
          "internalType": "bytes",
          "name": "data",
          "type": "bytes"
        }
      ],
      "name": "mintCallback",
      "outputs": [],
      "stateMutability": "nonpayable",
      "type": "function"
    },
    {
      "inputs": [
        {
          "internalType": "bytes[]",
          "name": "data",
          "type": "bytes[]"
        }
      ],
      "name": "multicall",
      "outputs": [
        {
          "internalType": "bytes[]",
          "name": "results",
          "type": "bytes[]"
        }
      ],
      "stateMutability": "payable",
      "type": "function"
    },
    {
      "inputs": [
        {
          "internalType": "uint256",
          "name": "liquidity",
          "type": "uint256"
        },
        {
          "internalType": "bytes",
          "name": "data",
          "type": "bytes"
        }
      ],
      "name": "pairMintCallback",
      "outputs": [],
      "stateMutability": "nonpayable",
      "type": "function"
    },
    {
      "inputs": [],
      "name": "refundETH",
      "outputs": [],
      "stateMutability": "payable",
      "type": "function"
    },
    {
      "inputs": [
        {
          "internalType": "address",
          "name": "token",
          "type": "address"
        },
        {
          "internalType": "uint256",
          "name": "value",
          "type": "uint256"
        },
        {
          "internalType": "uint256",
          "name": "deadline",
          "type": "uint256"
        },
        {
          "internalType": "uint8",
          "name": "v",
          "type": "uint8"
        },
        {
          "internalType": "bytes32",
          "name": "r",
          "type": "bytes32"
        },
        {
          "internalType": "bytes32",
          "name": "s",
          "type": "bytes32"
        }
      ],
      "name": "selfPermit",
      "outputs": [],
      "stateMutability": "payable",
      "type": "function"
    },
    {
      "inputs": [
        {
          "internalType": "address",
          "name": "token",
          "type": "address"
        },
        {
          "internalType": "uint256",
          "name": "nonce",
          "type": "uint256"
        },
        {
          "internalType": "uint256",
          "name": "expiry",
          "type": "uint256"
        },
        {
          "internalType": "uint8",
          "name": "v",
          "type": "uint8"
        },
        {
          "internalType": "bytes32",
          "name": "r",
          "type": "bytes32"
        },
        {
          "internalType": "bytes32",
          "name": "s",
          "type": "bytes32"
        }
      ],
      "name": "selfPermitAllowed",
      "outputs": [],
      "stateMutability": "payable",
      "type": "function"
    },
    {
      "inputs": [
        {
          "internalType": "address",
          "name": "token",
          "type": "address"
        },
        {
          "internalType": "uint256",
          "name": "amountMinimum",
          "type": "uint256"
        },
        {
          "internalType": "address",
          "name": "recipient",
          "type": "address"
        }
      ],
      "name": "sweepToken",
      "outputs": [],
      "stateMutability": "payable",
      "type": "function"
    },
    {
      "inputs": [],
      "name": "uniswapV2Factory",
      "outputs": [
        {
          "internalType": "address",
          "name": "",
          "type": "address"
        }
      ],
      "stateMutability": "view",
      "type": "function"
    },
    {
      "inputs": [],
      "name": "uniswapV3Factory",
      "outputs": [
        {
          "internalType": "address",
          "name": "",
          "type": "address"
        }
      ],
      "stateMutability": "view",
      "type": "function"
    },
    {
      "inputs": [
        {
          "internalType": "int256",
          "name": "amount0Delta",
          "type": "int256"
        },
        {
          "internalType": "int256",
          "name": "amount1Delta",
          "type": "int256"
        },
        {
          "internalType": "bytes",
          "name": "data",
          "type": "bytes"
        }
      ],
      "name": "uniswapV3SwapCallback",
      "outputs": [],
      "stateMutability": "nonpayable",
      "type": "function"
    },
    {
      "inputs": [
        {
          "internalType": "uint256",
          "name": "amountMinimum",
          "type": "uint256"
        },
        {
          "internalType": "address",
          "name": "recipient",
          "type": "address"
        }
      ],
      "name": "unwrapWETH",
      "outputs": [],
      "stateMutability": "payable",
      "type": "function"
    },
    {
      "inputs": [],
      "name": "weth",
      "outputs": [
        {
          "internalType": "address",
          "name": "",
          "type": "address"
        }
      ],
      "stateMutability": "view",
      "type": "function"
    },
    {
      "stateMutability": "payable",
      "type": "receive"
    }
  ],
  "bytecode": {
    "object": "0x6101006040523480156200001257600080fd5b506040516200326438038062003264833981016040819052620000359162000075565b6001600160a01b0390811660805291821660a052811660c0521660e052620000d2565b80516001600160a01b03811681146200007057600080fd5b919050565b600080600080608085870312156200008c57600080fd5b620000978562000058565b9350620000a76020860162000058565b9250620000b76040860162000058565b9150620000c76060860162000058565b905092959194509250565b60805160a05160c05160e0516130fe62000166600039600081816102e9015281816103ad01528181610557015281816109f30152610def01526000818161028201526115fe01526000818161024e01528181611401015261143901526000818160fc015281816101ef01528181610cd001528181610d65015281816117fc0152818161184201526118b901526130fe6000f3fe6080604052600436106100ec5760003560e01c8063ac9650d81161008a578063e16d9ce511610059578063e16d9ce51461031e578063ef4ae61c14610331578063f3995c6714610351578063fa461e331461036457600080fd5b8063ac9650d8146102a4578063ae678438146102c4578063c45a0155146102d7578063df2ab5bb1461030b57600080fd5b80633fc8cef3116100c65780633fc8cef3146101dd5780634659a4941461022957806359d0f7131461023c5780635b5491821461027057600080fd5b806312210e8a1461018f5780632dde7c2414610197578063342837c4146101b757600080fd5b3661018a57336001600160a01b037f00000000000000000000000000000000000000000000000000000000000000001614610188576040517f08c379a000000000000000000000000000000000000000000000000000000000815260206004820152600960248201527f4e6f74205745544839000000000000000000000000000000000000000000000060448201526064015b60405180910390fd5b005b600080fd5b610188610384565b3480156101a357600080fd5b506101886101b2366004612436565b610396565b6101ca6101c53660046124a0565b61050e565b6040519081526020015b60405180910390f35b3480156101e957600080fd5b506102117f000000000000000000000000000000000000000000000000000000000000000081565b6040516001600160a01b0390911681526020016101d4565b610188610237366004612504565b6107e7565b34801561024857600080fd5b506102117f000000000000000000000000000000000000000000000000000000000000000081565b34801561027c57600080fd5b506102117f000000000000000000000000000000000000000000000000000000000000000081565b6102b76102b2366004612566565b610889565b6040516101d4919061262b565b6101ca6102d23660046126ab565b6109aa565b3480156102e357600080fd5b506102117f000000000000000000000000000000000000000000000000000000000000000081565b6101886103193660046126e7565b610c6b565b61018861032c366004612729565b610cc9565b34801561033d57600080fd5b5061018861034c366004612759565b610dd8565b61018861035f366004612504565b6111c7565b34801561037057600080fd5b5061018861037f3660046127a5565b611237565b4715610394576103943347611267565b565b60006103a482840184612911565b905060006103ea7f0000000000000000000000000000000000000000000000000000000000000000836000015184602001518560400151866060015187608001516112ac565b90506001600160a01b038116331461042e576040517fae64f5e500000000000000000000000000000000000000000000000000000000815260040160405180910390fd5b60006104858360c00151604051806080016040528086600001516001600160a01b0316815260200186602001516001600160a01b031681526020016104728c6113ae565b81523360209091015260e08601516113e0565b905061049683602001513389611770565b6000816104a3898c612a1f565b6104ad9190612a1f565b90508360a001518111156104ed576040517f4ff64a9f00000000000000000000000000000000000000000000000000000000815260040160405180910390fd5b610502846020015185610100015133846117fa565b50505050505050505050565b600081610180013542811015610550576040517f0756982f00000000000000000000000000000000000000000000000000000000815260040160405180910390fd5b60006105a77f00000000000000000000000000000000000000000000000000000000000000006105836020870187612a38565b6105936040880160208901612a38565b8760400135886060013589608001356112ac565b90506000806105be61018087016101608801612a38565b6001600160a01b0316146105e3576105de61018086016101608701612a38565b6105e5565b305b90506105f78233848860a00135611907565b816001600160a01b031663d6241218306040518061016001604052808960000160208101906106269190612a38565b6001600160a01b031681526020018960200160208101906106479190612a38565b6001600160a01b031681526020018960400135815260200189606001358152602001896080013581526020018960c0013581526020018960e0013581526020018961010001358152602001896101200160208101906106a69190612a55565b60018111156106b7576106b7612a70565b81526020016106ca6101408b018b612a9f565b8080601f0160208091040260200160405190810160405280939291908181526020018383808284376000920191909152505050908252506001600160a01b03861660209182015260405161071f929101612b3f565b6040516020818303038152906040526040518363ffffffff1660e01b815260040161074b929190612c04565b6020604051808303816000875af115801561076a573d6000803e3d6000fd5b505050506040513d601f19601f8201168201806040525081019061078e9190612c26565b6040805182815260a088013560208201529195506001600160a01b03808416929085169133917fd3986fdc78865c06fb072387efddb45772a87fe2105e598db99f085be3d05b84910160405180910390a4505050919050565b6040517f8fcbaf0c00000000000000000000000000000000000000000000000000000000815233600482015230602482015260448101869052606481018590526001608482015260ff841660a482015260c4810183905260e481018290526001600160a01b03871690638fcbaf0c90610104015b600060405180830381600087803b15801561087557600080fd5b505af1158015610502573d6000803e3d6000fd5b60608167ffffffffffffffff8111156108a4576108a46127f8565b6040519080825280602002602001820160405280156108d757816020015b60608152602001906001900390816108c25790505b50905060005b828110156109a357600080308686858181106108fb576108fb612c3f565b905060200281019061090d9190612a9f565b60405161091b929190612c6e565b600060405180830381855af49150503d8060008114610956576040519150601f19603f3d011682016040523d82523d6000602084013e61095b565b606091505b50915091508161097b57805160000361097357600080fd5b805181602001fd5b8084848151811061098e5761098e612c3f565b602090810291909101015250506001016108dd565b5092915050565b6000816101600135428110156109ec576040517f0756982f00000000000000000000000000000000000000000000000000000000815260040160405180910390fd5b6000610a1f7f00000000000000000000000000000000000000000000000000000000000000006105836020870187612a38565b90506001600160a01b0381166394d008ef30610a4360c088013560a0890135612c7e565b60408051610120810190915280610a5d60208b018b612a38565b6001600160a01b03168152602001896020016020810190610a7e9190612a38565b6001600160a01b031681526020018960400135815260200189606001358152602001896080013581526020018960a00135815260200189610100016020810190610ac89190612a55565b6001811115610ad957610ad9612a70565b8152602001610aec6101208b018b612a9f565b8080601f01602080910402602001604051908101604052809392919081815260200183838082843760009201919091525050509082525033602091820152604051610b38929101612c91565b6040516020818303038152906040526040518463ffffffff1660e01b8152600401610b6593929190612d21565b6020604051808303816000875af1158015610b84573d6000803e3d6000fd5b505050506040513d601f19601f82011682018060405250810190610ba89190612c26565b92508360e00135831015610be8576040517f4ff64a9f00000000000000000000000000000000000000000000000000000000815260040160405180910390fd5b610c0481610bfe61016087016101408801612a38565b85611770565b610c1661016085016101408601612a38565b6040805160a08701358152602081018690526001600160a01b039283169284169133917fcbf8efe58e4d9446372cf0b522a0e624e268e73c5782be6e5c293f191fb092c6910160405180910390a45050919050565b6000610c76846119a0565b905082811015610cb2576040517fd5ab59fe00000000000000000000000000000000000000000000000000000000815260040160405180910390fd5b8015610cc357610cc3848383611770565b50505050565b6000610cf47f00000000000000000000000000000000000000000000000000000000000000006119a0565b905082811015610d30576040517fd5ab59fe00000000000000000000000000000000000000000000000000000000815260040160405180910390fd5b8015610dd3576040517f2e1a7d4d000000000000000000000000000000000000000000000000000000008152600481018290527f00000000000000000000000000000000000000000000000000000000000000006001600160a01b031690632e1a7d4d90602401600060405180830381600087803b158015610db157600080fd5b505af1158015610dc5573d6000803e3d6000fd5b50505050610dd38282611267565b505050565b6000610de682840184612d49565b90506000610e2c7f0000000000000000000000000000000000000000000000000000000000000000836000015184602001518560400151866060015187608001516112ac565b90506001600160a01b0381163314610e70576040517fae64f5e500000000000000000000000000000000000000000000000000000000815260040160405180910390fd5b6000336001600160a01b031663443cb4bc6040518163ffffffff1660e01b8152600401602060405180830381865afa158015610eb0573d6000803e3d6000fd5b505050506040513d601f19601f82011682018060405250810190610ed49190612e30565b6effffffffffffffffffffffffffffff1690506000336001600160a01b0316635a76f25e6040518163ffffffff1660e01b8152600401602060405180830381865afa158015610f27573d6000803e3d6000fd5b505050506040513d601f19601f82011682018060405250810190610f4b9190612e30565b6effffffffffffffffffffffffffffff1690506000336001600160a01b03166315770f926040518163ffffffff1660e01b8152600401602060405180830381865afa158015610f9e573d6000803e3d6000fd5b505050506040513d601f19601f82011682018060405250810190610fc29190612c26565b905060008082600003610fe057505060c085015160e0860151610ffb565b610feb8a8685611afc565b9150610ff88a8585611afc565b90505b8660c0015182108061101057508660e0015181105b15611047576040517f4ff64a9f00000000000000000000000000000000000000000000000000000000815260040160405180910390fd5b60006110a988610100015160405180608001604052808b602001516001600160a01b031681526020018b600001516001600160a01b0316815260200161108c876113ae565b61109590612e61565b8152336020909101526101208b01516113e0565b90506110ba88602001513384611770565b6040517f5138caa1000000000000000000000000000000000000000000000000000000008152600481018c90526000903390635138caa190602401602060405180830381865afa158015611112573d6000803e3d6000fd5b505050506040513d601f19601f820116820180604052508101906111369190612c26565b90506000826111458584612a1f565b61114f9190612a1f565b90508960a0015181101561118f576040517f4ff64a9f00000000000000000000000000000000000000000000000000000000815260040160405180910390fd5b6101408a01516001600160a01b031630146111b8576111b88a602001518b610140015183611770565b50505050505050505050505050565b6040517fd505accf000000000000000000000000000000000000000000000000000000008152336004820152306024820152604481018690526064810185905260ff8416608482015260a4810183905260c481018290526001600160a01b0387169063d505accf9060e40161085b565b600061124582840184612a38565b905061126081336000881361125a5786611770565b87611770565b5050505050565b600080600080600085875af1905080610dd3576040517fe293b56b00000000000000000000000000000000000000000000000000000000815260040160405180910390fd5b604080516001600160a01b038088166020830152861691810191909152606081018490526080810183905260a08101829052600090879060c00160408051601f1981840301815290829052805160209182012061138b939290917e2893fe80ad155f8c0156e72dc590bc60e0fea81e5d8f68747efb125342585e91017fff00000000000000000000000000000000000000000000000000000000000000815260609390931b7fffffffffffffffffffffffffffffffffffffffff0000000000000000000000001660018401526015830191909152603582015260550190565b60408051601f198184030181529190528051602090910120979650505050505050565b60007f800000000000000000000000000000000000000000000000000000000000000082106113dc57600080fd5b5090565b6000808460018111156113f5576113f5612a70565b036115c357600061142f7f000000000000000000000000000000000000000000000000000000000000000085600001518660200151611b37565b90506000806114677f000000000000000000000000000000000000000000000000000000000000000087600001518860200151611c4e565b9150915060008660400151136114945761148f866040015161148890612e61565b8383611d26565b6114a3565b6114a386604001518383611ea6565b935060008060008860400151136114c8578588604001516114c390612e61565b6114cf565b8760400151865b9150915060006114e789600001518a60200151612021565b509050600080826001600160a01b03168b600001516001600160a01b03161461151257836000611516565b6000845b915091506115298b600001518987611770565b60608b0151604080516020810182526000815290517f022c0d9f0000000000000000000000000000000000000000000000000000000081526001600160a01b038b169263022c0d9f9261158492879287929091600401612e99565b600060405180830381600087803b15801561159e57600080fd5b505af11580156115b2573d6000803e3d6000fd5b505050505050505050505050611769565b6000828060200190518101906115d99190612ec7565b6020850151855182519293506001600160a01b03808316908216109260009261162d927f0000000000000000000000000000000000000000000000000000000000000000926116289290612164565b6121cf565b9050600080826001600160a01b031663128acb088960600151868b604001518861167557611670600173fffd8963efd1fc6a506488495d951d5263988d26612f1b565b611685565b6116856401000276a36001612f3b565b8d51604080516001600160a01b039092166020830152016040516020818303038152906040526040518663ffffffff1660e01b81526004016116cb959493929190612f5b565b60408051808303816000875af11580156116e9573d6000803e3d6000fd5b505050506040513d601f19601f8201168201806040525081019061170d9190612f95565b9150915060008860400151131561173b5783611729578161172b565b805b61173490612e61565b9550611763565b60008461174957818361174c565b82825b60408b01519198509150811461176157600080fd5b505b50505050505b9392505050565b60006040517fa9059cbb0000000000000000000000000000000000000000000000000000000081526001600160a01b03841660048201528260248201526000806044836000895af19150506117c4816122e3565b610cc3576040517fbfa871c500000000000000000000000000000000000000000000000000000000815260040160405180910390fd5b7f00000000000000000000000000000000000000000000000000000000000000006001600160a01b0316846001600160a01b031614801561183b5750804710155b156118e4577f00000000000000000000000000000000000000000000000000000000000000006001600160a01b031663d0e30db0826040518263ffffffff1660e01b81526004016000604051808303818588803b15801561189b57600080fd5b505af11580156118af573d6000803e3d6000fd5b50505050506118df7f00000000000000000000000000000000000000000000000000000000000000008383611770565b610cc3565b306001600160a01b038416036118ff576118df848383611770565b610cc3848484845b60006040517f23b872dd0000000000000000000000000000000000000000000000000000000081526001600160a01b03851660048201526001600160a01b038416602482015282604482015260008060648360008a5af191505061196a816122e3565b611260576040517fa83c475400000000000000000000000000000000000000000000000000000000815260040160405180910390fd5b604080518082018252601281527f62616c616e63654f662861646472657373290000000000000000000000000000602091820152815130602480830191909152835180830390910181526044909101835290810180517bffffffffffffffffffffffffffffffffffffffffffffffffffffffff167f70a08231000000000000000000000000000000000000000000000000000000001790529051600091829182916001600160a01b03861691611a569190612fb9565b600060405180830381855afa9150503d8060008114611a91576040519150601f19603f3d011682016040523d82523d6000602084013e611a96565b606091505b5091509150811580611aa9575060208151105b15611ae0576040517f7613bc8900000000000000000000000000000000000000000000000000000000815260040160405180910390fd5b80806020019051810190611af49190612c26565b949350505050565b6000611b09848484612328565b905060008280611b1b57611b1b612fd5565b84860911156117695780611b2e81613004565b95945050505050565b6000806000611b468585612021565b6040517fffffffffffffffffffffffffffffffffffffffff000000000000000000000000606084811b8216602084015283901b1660348201529193509150869060480160405160208183030381529060405280519060200120604051602001611c2c9291907fff00000000000000000000000000000000000000000000000000000000000000815260609290921b7fffffffffffffffffffffffffffffffffffffffff00000000000000000000000016600183015260158201527fe18a34eb0e04b04f7a0ac29a6e80748dca96319b42c54d679cb821dca90c6303603582015260550190565b60408051601f1981840301815291905280516020909101209695505050505050565b6000806000611c5d8585612021565b509050600080611c6e888888611b37565b6001600160a01b0316630902f1ac6040518163ffffffff1660e01b8152600401606060405180830381865afa158015611cab573d6000803e3d6000fd5b505050506040513d601f19601f82011682018060405250810190611ccf919061305a565b506dffffffffffffffffffffffffffff1691506dffffffffffffffffffffffffffff169150826001600160a01b0316876001600160a01b031614611d14578082611d17565b81815b90999098509650505050505050565b6000808411611db7576040517f08c379a000000000000000000000000000000000000000000000000000000000815260206004820152602c60248201527f556e697377617056324c6962726172793a20494e53554646494349454e545f4f60448201527f55545055545f414d4f554e540000000000000000000000000000000000000000606482015260840161017f565b600083118015611dc75750600082115b611e53576040517f08c379a000000000000000000000000000000000000000000000000000000000815260206004820152602860248201527f556e697377617056324c6962726172793a20494e53554646494349454e545f4c60448201527f4951554944495459000000000000000000000000000000000000000000000000606482015260840161017f565b6000611e5f858561309f565b611e6b906103e861309f565b90506000611e798685612a1f565b611e85906103e561309f565b9050611e9181836130b6565b611e9c906001612c7e565b9695505050505050565b6000808411611f37576040517f08c379a000000000000000000000000000000000000000000000000000000000815260206004820152602b60248201527f556e697377617056324c6962726172793a20494e53554646494349454e545f4960448201527f4e5055545f414d4f554e54000000000000000000000000000000000000000000606482015260840161017f565b600083118015611f475750600082115b611fd3576040517f08c379a000000000000000000000000000000000000000000000000000000000815260206004820152602860248201527f556e697377617056324c6962726172793a20494e53554646494349454e545f4c60448201527f4951554944495459000000000000000000000000000000000000000000000000606482015260840161017f565b6000611fe1856103e561309f565b90506000611fef848361309f565b9050600082612000876103e861309f565b61200a9190612c7e565b905061201681836130b6565b979650505050505050565b600080826001600160a01b0316846001600160a01b0316036120c5576040517f08c379a000000000000000000000000000000000000000000000000000000000815260206004820152602560248201527f556e697377617056324c6962726172793a204944454e544943414c5f4144445260448201527f4553534553000000000000000000000000000000000000000000000000000000606482015260840161017f565b826001600160a01b0316846001600160a01b0316106120e55782846120e8565b83835b90925090506001600160a01b03821661215d576040517f08c379a000000000000000000000000000000000000000000000000000000000815260206004820152601e60248201527f556e697377617056324c6962726172793a205a45524f5f414444524553530000604482015260640161017f565b9250929050565b6040805160608101825260008082526020820181905291810191909152826001600160a01b0316846001600160a01b0316111561219f579192915b50604080516060810182526001600160a01b03948516815292909316602083015262ffffff169181019190915290565b600081602001516001600160a01b031682600001516001600160a01b0316106121f757600080fd5b815160208084015160408086015181516001600160a01b0395861681860152949092168482015262ffffff90911660608085019190915281518085038201815260808501909252815191909201207fff0000000000000000000000000000000000000000000000000000000000000060a08401529085901b7fffffffffffffffffffffffffffffffffffffffff0000000000000000000000001660a183015260b58201527fe34f199b19b2b4f47f68442619d555527d244f78a3297ea89325f843f87b8b5460d582015260f50160408051601f1981840301815291905280516020909101209392505050565b6000816122f4573d6000803e3d6000fd5b3d6020811461230c57801561231d5760009150612322565b3d6000803e60005115159150612322565b600191505b50919050565b600080807fffffffffffffffffffffffffffffffffffffffffffffffffffffffffffffffff8587098587029250828110838203039150508060000361237f576000841161237457600080fd5b508290049050611769565b80841161238b57600080fd5b60008486880960026001871981018816978890046003810283188082028403028082028403028082028403028082028403028082028403029081029092039091026000889003889004909101858311909403939093029303949094049190911702949350505050565b60008083601f84011261240657600080fd5b50813567ffffffffffffffff81111561241e57600080fd5b60208301915083602082850101111561215d57600080fd5b60008060008060008060a0878903121561244f57600080fd5b86359550602087013594506040870135935060608701359250608087013567ffffffffffffffff81111561248257600080fd5b61248e89828a016123f4565b979a9699509497509295939492505050565b6000602082840312156124b257600080fd5b813567ffffffffffffffff8111156124c957600080fd5b82016101a0818503121561176957600080fd5b6001600160a01b03811681146124f157600080fd5b50565b80356124ff816124dc565b919050565b60008060008060008060c0878903121561251d57600080fd5b8635612528816124dc565b95506020870135945060408701359350606087013560ff8116811461254c57600080fd5b9598949750929560808101359460a0909101359350915050565b6000806020838503121561257957600080fd5b823567ffffffffffffffff8082111561259157600080fd5b818501915085601f8301126125a557600080fd5b8135818111156125b457600080fd5b8660208260051b85010111156125c957600080fd5b60209290920196919550909350505050565b60005b838110156125f65781810151838201526020016125de565b50506000910152565b600081518084526126178160208601602086016125db565b601f01601f19169290920160200192915050565b6000602080830181845280855180835260408601915060408160051b870101925083870160005b8281101561269e577fffffffffffffffffffffffffffffffffffffffffffffffffffffffffffffffc088860301845261268c8583516125ff565b94509285019290850190600101612652565b5092979650505050505050565b6000602082840312156126bd57600080fd5b813567ffffffffffffffff8111156126d457600080fd5b8201610180818503121561176957600080fd5b6000806000606084860312156126fc57600080fd5b8335612707816124dc565b925060208401359150604084013561271e816124dc565b809150509250925092565b6000806040838503121561273c57600080fd5b82359150602083013561274e816124dc565b809150509250929050565b60008060006040848603121561276e57600080fd5b83359250602084013567ffffffffffffffff81111561278c57600080fd5b612798868287016123f4565b9497909650939450505050565b600080600080606085870312156127bb57600080fd5b8435935060208501359250604085013567ffffffffffffffff8111156127e057600080fd5b6127ec878288016123f4565b95989497509550505050565b7f4e487b7100000000000000000000000000000000000000000000000000000000600052604160045260246000fd5b604051610120810167ffffffffffffffff8111828210171561284b5761284b6127f8565b60405290565b604051610160810167ffffffffffffffff8111828210171561284b5761284b6127f8565b8035600281106124ff57600080fd5b600082601f83011261289557600080fd5b813567ffffffffffffffff808211156128b0576128b06127f8565b604051601f8301601f19908116603f011681019082821181831017156128d8576128d86127f8565b816040528381528660208588010111156128f157600080fd5b836020870160208301376000602085830101528094505050505092915050565b60006020828403121561292357600080fd5b813567ffffffffffffffff8082111561293b57600080fd5b90830190610120828603121561295057600080fd5b612958612827565b612961836124f4565b815261296f602084016124f4565b602082015260408301356040820152606083013560608201526080830135608082015260a083013560a08201526129a860c08401612875565b60c082015260e0830135828111156129bf57600080fd5b6129cb87828601612884565b60e08301525061010091506129e18284016124f4565b91810191909152949350505050565b7f4e487b7100000000000000000000000000000000000000000000000000000000600052601160045260246000fd5b81810381811115612a3257612a326129f0565b92915050565b600060208284031215612a4a57600080fd5b8135611769816124dc565b600060208284031215612a6757600080fd5b61176982612875565b7f4e487b7100000000000000000000000000000000000000000000000000000000600052602160045260246000fd5b60008083357fffffffffffffffffffffffffffffffffffffffffffffffffffffffffffffffe1843603018112612ad457600080fd5b83018035915067ffffffffffffffff821115612aef57600080fd5b60200191503681900382131561215d57600080fd5b60028110612b3b577f4e487b7100000000000000000000000000000000000000000000000000000000600052602160045260246000fd5b9052565b60208152612b596020820183516001600160a01b03169052565b60006020830151612b7560408401826001600160a01b03169052565b506040830151606083015260608301516080830152608083015160a083015260a083015160c083015260c083015160e083015260e0830151610100818185015280850151915050610120612bcb81850183612b04565b808501519150506101606101408181860152612beb6101808601846125ff565b9501516001600160a01b03169301929092525090919050565b6001600160a01b0383168152604060208201526000611af460408301846125ff565b600060208284031215612c3857600080fd5b5051919050565b7f4e487b7100000000000000000000000000000000000000000000000000000000600052603260045260246000fd5b8183823760009101908152919050565b80820180821115612a3257612a326129f0565b60208152612cab6020820183516001600160a01b03169052565b60006020830151612cc760408401826001600160a01b03169052565b506040830151606083015260608301516080830152608083015160a083015260a083015160c083015260c0830151612d0260e0840182612b04565b5060e08301516101206101008181860152612beb6101408601846125ff565b6001600160a01b0384168152826020820152606060408201526000611b2e60608301846125ff565b600060208284031215612d5b57600080fd5b813567ffffffffffffffff80821115612d7357600080fd5b908301906101608286031215612d8857600080fd5b612d90612851565b612d99836124f4565b8152612da7602084016124f4565b602082015260408301356040820152606083013560608201526080830135608082015260a083013560a082015260c083013560c082015260e083013560e0820152610100612df6818501612875565b908201526101208381013583811115612e0e57600080fd5b612e1a88828701612884565b82840152505061014091506129e18284016124f4565b600060208284031215612e4257600080fd5b81516effffffffffffffffffffffffffffff8116811461176957600080fd5b60007f80000000000000000000000000000000000000000000000000000000000000008203612e9257612e926129f0565b5060000390565b8481528360208201526001600160a01b0383166040820152608060608201526000611e9c60808301846125ff565b600060208284031215612ed957600080fd5b6040516020810181811067ffffffffffffffff82111715612efc57612efc6127f8565b604052825162ffffff81168114612f1257600080fd5b81529392505050565b6001600160a01b038281168282160390808211156109a3576109a36129f0565b6001600160a01b038181168382160190808211156109a3576109a36129f0565b60006001600160a01b038088168352861515602084015285604084015280851660608401525060a0608083015261201660a08301846125ff565b60008060408385031215612fa857600080fd5b505080516020909101519092909150565b60008251612fcb8184602087016125db565b9190910192915050565b7f4e487b7100000000000000000000000000000000000000000000000000000000600052601260045260246000fd5b60007fffffffffffffffffffffffffffffffffffffffffffffffffffffffffffffffff8203613035576130356129f0565b5060010190565b80516dffffffffffffffffffffffffffff811681146124ff57600080fd5b60008060006060848603121561306f57600080fd5b6130788461303c565b92506130866020850161303c565b9150604084015163ffffffff8116811461271e57600080fd5b8082028115828204841417612a3257612a326129f0565b6000826130ec577f4e487b7100000000000000000000000000000000000000000000000000000000600052601260045260246000fd5b50049056fea164736f6c6343000811000a",
    "linkReferences": {}
  },
  "methodIdentifiers": {
    "burn((address,address,uint256,uint256,uint256,uint256,uint256,uint256,uint256,uint8,bytes,address,uint256))": "342837c4",
    "factory()": "c45a0155",
    "mint((address,address,uint256,uint256,uint256,uint256,uint256,uint256,uint8,bytes,address,uint256))": "ae678438",
    "mintCallback(uint256,uint256,uint256,uint256,bytes)": "2dde7c24",
    "multicall(bytes[])": "ac9650d8",
    "pairMintCallback(uint256,bytes)": "ef4ae61c",
    "refundETH()": "12210e8a",
    "selfPermit(address,uint256,uint256,uint8,bytes32,bytes32)": "f3995c67",
    "selfPermitAllowed(address,uint256,uint256,uint8,bytes32,bytes32)": "4659a494",
    "sweepToken(address,uint256,address)": "df2ab5bb",
    "uniswapV2Factory()": "59d0f713",
    "uniswapV3Factory()": "5b549182",
    "uniswapV3SwapCallback(int256,int256,bytes)": "fa461e33",
    "unwrapWETH(uint256,address)": "e16d9ce5",
    "weth()": "3fc8cef3"
  },
  "id": 35
}